{"abi":[{"type":"constructor","inputs":[],"stateMutability":"nonpayable"},{"type":"function","name":"accessResource","inputs":[{"name":"_resource","type":"string","internalType":"string"},{"name":"_action","type":"string","internalType":"string"}],"outputs":[{"name":"","type":"string","internalType":"string"}],"stateMutability":"view"},{"type":"function","name":"admin","inputs":[],"outputs":[{"name":"","type":"address","internalType":"address"}],"stateMutability":"view"},{"type":"function","name":"capabilities","inputs":[{"name":"","type":"address","internalType":"address"},{"name":"","type":"string","internalType":"string"}],"outputs":[{"name":"resource","type":"string","internalType":"string"},{"name":"action","type":"string","internalType":"string"},{"name":"granted","type":"bool","internalType":"bool"}],"stateMutability":"view"},{"type":"function","name":"grantCapability","inputs":[{"name":"_account","type":"address","internalType":"address"},{"name":"_resource","type":"string","internalType":"string"},{"name":"_action","type":"string","internalType":"string"}],"outputs":[],"stateMutability":"nonpayable"},{"type":"function","name":"hasCapability","inputs":[{"name":"_account","type":"address","internalType":"address"},{"name":"_resource","type":"string","internalType":"string"},{"name":"_action","type":"string","internalType":"string"}],"outputs":[{"name":"","type":"bool","internalType":"bool"}],"stateMutability":"view"},{"type":"function","name":"revokeCapability","inputs":[{"name":"_account","type":"address","internalType":"address"},{"name":"_resource","type":"string","internalType":"string"}],"outputs":[],"stateMutability":"nonpayable"}],"bytecode":{"object":"0x6080604052348015600e575f5ffd5b503360015f6101000a81548173ffffffffffffffffffffffffffffffffffffffff021916908373ffffffffffffffffffffffffffffffffffffffff160217905550610fca8061005c5f395ff3fe608060405234801561000f575f5ffd5b5060043610610060575f3560e01c8063660f17ea1461006457806370f554d314610080578063ade55642146100b2578063b164d28d146100e2578063f851a44014610112578063f9fb0b2814610130575b5f5ffd5b61007e60048036038101906100799190610929565b61014c565b005b61009a600480360381019061009591906109b1565b6102a2565b6040516100a993929190610a85565b60405180910390f35b6100cc60048036038101906100c79190610ac8565b610402565b6040516100d99190610b3e565b60405180910390f35b6100fc60048036038101906100f79190610929565b61048c565b6040516101099190610b5e565b60405180910390f35b61011a610658565b6040516101279190610b86565b60405180910390f35b61014a600480360381019061014591906109b1565b61067d565b005b60015f9054906101000a900473ffffffffffffffffffffffffffffffffffffffff1673ffffffffffffffffffffffffffffffffffffffff163373ffffffffffffffffffffffffffffffffffffffff16146101db576040517f08c379a00000000000000000000000000000000000000000000000000000000081526004016101d290610be9565b60405180910390fd5b6040518060600160405280838152602001828152602001600115158152505f5f8573ffffffffffffffffffffffffffffffffffffffff1673ffffffffffffffffffffffffffffffffffffffff1681526020019081526020015f20836040516102439190610c41565b90815260200160405180910390205f820151815f0190816102649190610e5d565b50602082015181600101908161027a9190610e5d565b506040820151816002015f6101000a81548160ff021916908315150217905550905050505050565b5f602052815f5260405f20818051602081018201805184825260208301602085012081835280955050505050505f9150915050805f0180546102e390610c84565b80601f016020809104026020016040519081016040528092919081815260200182805461030f90610c84565b801561035a5780601f106103315761010080835404028352916020019161035a565b820191905f5260205f20905b81548152906001019060200180831161033d57829003601f168201915b50505050509080600101805461036f90610c84565b80601f016020809104026020016040519081016040528092919081815260200182805461039b90610c84565b80156103e65780601f106103bd576101008083540402835291602001916103e6565b820191905f5260205f20905b8154815290600101906020018083116103c957829003601f168201915b505050505090806002015f9054906101000a900460ff16905083565b606061040f33848461048c565b61044e576040517f08c379a000000000000000000000000000000000000000000000000000000000815260040161044590610f76565b60405180910390fd5b6040518060400160405280602081526020017f4361706162696c6974792d626173656420616363657373206772616e7465642e815250905092915050565b5f5f5f5f8673ffffffffffffffffffffffffffffffffffffffff1673ffffffffffffffffffffffffffffffffffffffff1681526020019081526020015f20846040516104d89190610c41565b90815260200160405180910390206040518060600160405290815f8201805461050090610c84565b80601f016020809104026020016040519081016040528092919081815260200182805461052c90610c84565b80156105775780601f1061054e57610100808354040283529160200191610577565b820191905f5260205f20905b81548152906001019060200180831161055a57829003601f168201915b5050505050815260200160018201805461059090610c84565b80601f01602080910402602001604051908101604052809291908181526020018280546105bc90610c84565b80156106075780601f106105de57610100808354040283529160200191610607565b820191905f5260205f20905b8154815290600101906020018083116105ea57829003601f168201915b50505050508152602001600282015f9054906101000a900460ff16151515158152505090508060400151801561064e57508280519060200120816020015180519060200120145b9150509392505050565b60015f9054906101000a900473ffffffffffffffffffffffffffffffffffffffff1681565b60015f9054906101000a900473ffffffffffffffffffffffffffffffffffffffff1673ffffffffffffffffffffffffffffffffffffffff163373ffffffffffffffffffffffffffffffffffffffff161461070c576040517f08c379a000000000000000000000000000000000000000000000000000000000815260040161070390610be9565b60405180910390fd5b5f5f5f8473ffffffffffffffffffffffffffffffffffffffff1673ffffffffffffffffffffffffffffffffffffffff1681526020019081526020015f20826040516107579190610c41565b90815260200160405180910390206002015f6101000a81548160ff0219169083151502179055505050565b5f604051905090565b5f5ffd5b5f5ffd5b5f73ffffffffffffffffffffffffffffffffffffffff82169050919050565b5f6107bc82610793565b9050919050565b6107cc816107b2565b81146107d6575f5ffd5b50565b5f813590506107e7816107c3565b92915050565b5f5ffd5b5f5ffd5b5f601f19601f8301169050919050565b7f4e487b71000000000000000000000000000000000000000000000000000000005f52604160045260245ffd5b61083b826107f5565b810181811067ffffffffffffffff8211171561085a57610859610805565b5b80604052505050565b5f61086c610782565b90506108788282610832565b919050565b5f67ffffffffffffffff82111561089757610896610805565b5b6108a0826107f5565b9050602081019050919050565b828183375f83830152505050565b5f6108cd6108c88461087d565b610863565b9050828152602081018484840111156108e9576108e86107f1565b5b6108f48482856108ad565b509392505050565b5f82601f8301126109105761090f6107ed565b5b81356109208482602086016108bb565b91505092915050565b5f5f5f606084860312156109405761093f61078b565b5b5f61094d868287016107d9565b935050602084013567ffffffffffffffff81111561096e5761096d61078f565b5b61097a868287016108fc565b925050604084013567ffffffffffffffff81111561099b5761099a61078f565b5b6109a7868287016108fc565b9150509250925092565b5f5f604083850312156109c7576109c661078b565b5b5f6109d4858286016107d9565b925050602083013567ffffffffffffffff8111156109f5576109f461078f565b5b610a01858286016108fc565b9150509250929050565b5f81519050919050565b5f82825260208201905092915050565b8281835e5f83830152505050565b5f610a3d82610a0b565b610a478185610a15565b9350610a57818560208601610a25565b610a60816107f5565b840191505092915050565b5f8115159050919050565b610a7f81610a6b565b82525050565b5f6060820190508181035f830152610a9d8186610a33565b90508181036020830152610ab18185610a33565b9050610ac06040830184610a76565b949350505050565b5f5f60408385031215610ade57610add61078b565b5b5f83013567ffffffffffffffff811115610afb57610afa61078f565b5b610b07858286016108fc565b925050602083013567ffffffffffffffff811115610b2857610b2761078f565b5b610b34858286016108fc565b9150509250929050565b5f6020820190508181035f830152610b568184610a33565b905092915050565b5f602082019050610b715f830184610a76565b92915050565b610b80816107b2565b82525050565b5f602082019050610b995f830184610b77565b92915050565b7f4f6e6c792061646d696e000000000000000000000000000000000000000000005f82015250565b5f610bd3600a83610a15565b9150610bde82610b9f565b602082019050919050565b5f6020820190508181035f830152610c0081610bc7565b9050919050565b5f81905092915050565b5f610c1b82610a0b565b610c258185610c07565b9350610c35818560208601610a25565b80840191505092915050565b5f610c4c8284610c11565b915081905092915050565b7f4e487b71000000000000000000000000000000000000000000000000000000005f52602260045260245ffd5b5f6002820490506001821680610c9b57607f821691505b602082108103610cae57610cad610c57565b5b50919050565b5f819050815f5260205f209050919050565b5f6020601f8301049050919050565b5f82821b905092915050565b5f60088302610d107fffffffffffffffffffffffffffffffffffffffffffffffffffffffffffffffff82610cd5565b610d1a8683610cd5565b95508019841693508086168417925050509392505050565b5f819050919050565b5f819050919050565b5f610d5e610d59610d5484610d32565b610d3b565b610d32565b9050919050565b5f819050919050565b610d7783610d44565b610d8b610d8382610d65565b848454610ce1565b825550505050565b5f5f905090565b610da2610d93565b610dad818484610d6e565b505050565b5b81811015610dd057610dc55f82610d9a565b600181019050610db3565b5050565b601f821115610e1557610de681610cb4565b610def84610cc6565b81016020851015610dfe578190505b610e12610e0a85610cc6565b830182610db2565b50505b505050565b5f82821c905092915050565b5f610e355f1984600802610e1a565b1980831691505092915050565b5f610e4d8383610e26565b9150826002028217905092915050565b610e6682610a0b565b67ffffffffffffffff811115610e7f57610e7e610805565b5b610e898254610c84565b610e94828285610dd4565b5f60209050601f831160018114610ec5575f8415610eb3578287015190505b610ebd8582610e42565b865550610f24565b601f198416610ed386610cb4565b5f5b82811015610efa57848901518255600182019150602085019450602081019050610ed5565b86831015610f175784890151610f13601f891682610e26565b8355505b6001600288020188555050505b505050505050565b7f4163636573732064656e696564000000000000000000000000000000000000005f82015250565b5f610f60600d83610a15565b9150610f6b82610f2c565b602082019050919050565b5f6020820190508181035f830152610f8d81610f54565b905091905056fea2646970667358221220aebf66141a07200ef53fc76f52b9fc6bebe06fb523f5ae3913f14113187939e764736f6c634300081d0033","linkReferences":{}},"methodIdentifiers":{"accessResource(string,string)":"ade55642","admin()":"f851a440","capabilities(address,string)":"70f554d3","grantCapability(address,string,string)":"660f17ea","hasCapability(address,string,string)":"b164d28d","revokeCapability(address,string)":"f9fb0b28"},"id":20}