{"abi":[{"type":"constructor","inputs":[],"stateMutability":"nonpayable"},{"type":"function","name":"accessAdminResource","inputs":[],"outputs":[{"name":"","type":"string","internalType":"string"}],"stateMutability":"view"},{"type":"function","name":"accessUserResource","inputs":[],"outputs":[{"name":"","type":"string","internalType":"string"}],"stateMutability":"view"},{"type":"function","name":"assignRole","inputs":[{"name":"_account","type":"address","internalType":"address"},{"name":"_role","type":"uint8","internalType":"enum RBAC5G.Role"}],"outputs":[],"stateMutability":"nonpayable"},{"type":"function","name":"owner","inputs":[],"outputs":[{"name":"","type":"address","internalType":"address"}],"stateMutability":"view"},{"type":"function","name":"revokeRole","inputs":[{"name":"_account","type":"address","internalType":"address"}],"outputs":[],"stateMutability":"nonpayable"},{"type":"function","name":"roles","inputs":[{"name":"","type":"address","internalType":"address"}],"outputs":[{"name":"","type":"uint8","internalType":"enum RBAC5G.Role"}],"stateMutability":"view"}],"bytecode":{"object":"0x608060405234801561000f575f5ffd5b503360015f6101000a81548173ffffffffffffffffffffffffffffffffffffffff021916908373ffffffffffffffffffffffffffffffffffffffff16021790555060015f5f60015f9054906101000a900473ffffffffffffffffffffffffffffffffffffffff1673ffffffffffffffffffffffffffffffffffffffff1673ffffffffffffffffffffffffffffffffffffffff1681526020019081526020015f205f6101000a81548160ff021916908360038111156100d0576100cf6100da565b5b0217905550610107565b7f4e487b71000000000000000000000000000000000000000000000000000000005f52602160045260245ffd5b6108a0806101145f395ff3fe608060405234801561000f575f5ffd5b5060043610610060575f3560e01c80631f51865b14610064578063630a195b1461008257806380e52e3f1461009e5780638da5cb5b146100ba5780639434f1f2146100d857806399374642146100f6575b5f5ffd5b61006c610126565b60405161007991906105dc565b60405180910390f35b61009c6004803603810190610097919061067d565b610212565b005b6100b860048036038101906100b391906106bb565b610328565b005b6100c261043d565b6040516100cf91906106f5565b60405180910390f35b6100e0610462565b6040516100ed91906105dc565b60405180910390f35b610110600480360381019061010b91906106bb565b610550565b60405161011d9190610781565b60405180910390f35b60606001600381111561013c5761013b61070e565b5b5f5f3373ffffffffffffffffffffffffffffffffffffffff1673ffffffffffffffffffffffffffffffffffffffff1681526020019081526020015f205f9054906101000a900460ff1660038111156101975761019661070e565b5b146101d7576040517f08c379a00000000000000000000000000000000000000000000000000000000081526004016101ce906107e4565b60405180910390fd5b6040518060400160405280601281526020017f41646d696e2d6f6e6c79206163636573732e0000000000000000000000000000815250905090565b600160038111156102265761022561070e565b5b5f5f3373ffffffffffffffffffffffffffffffffffffffff1673ffffffffffffffffffffffffffffffffffffffff1681526020019081526020015f205f9054906101000a900460ff1660038111156102815761028061070e565b5b146102c1576040517f08c379a00000000000000000000000000000000000000000000000000000000081526004016102b8906107e4565b60405180910390fd5b805f5f8473ffffffffffffffffffffffffffffffffffffffff1673ffffffffffffffffffffffffffffffffffffffff1681526020019081526020015f205f6101000a81548160ff0219169083600381111561031f5761031e61070e565b5b02179055505050565b6001600381111561033c5761033b61070e565b5b5f5f3373ffffffffffffffffffffffffffffffffffffffff1673ffffffffffffffffffffffffffffffffffffffff1681526020019081526020015f205f9054906101000a900460ff1660038111156103975761039661070e565b5b146103d7576040517f08c379a00000000000000000000000000000000000000000000000000000000081526004016103ce906107e4565b60405180910390fd5b5f5f5f8373ffffffffffffffffffffffffffffffffffffffff1673ffffffffffffffffffffffffffffffffffffffff1681526020019081526020015f205f6101000a81548160ff021916908360038111156104355761043461070e565b5b021790555050565b60015f9054906101000a900473ffffffffffffffffffffffffffffffffffffffff1681565b606060028060038111156104795761047861070e565b5b5f5f3373ffffffffffffffffffffffffffffffffffffffff1673ffffffffffffffffffffffffffffffffffffffff1681526020019081526020015f205f9054906101000a900460ff1660038111156104d4576104d361070e565b5b14610514576040517f08c379a000000000000000000000000000000000000000000000000000000000815260040161050b9061084c565b60405180910390fd5b6040518060400160405280602081526020017f416363657373206772616e74656420746f2075736572207265736f757263652e81525091505090565b5f602052805f5260405f205f915054906101000a900460ff1681565b5f81519050919050565b5f82825260208201905092915050565b8281835e5f83830152505050565b5f601f19601f8301169050919050565b5f6105ae8261056c565b6105b88185610576565b93506105c8818560208601610586565b6105d181610594565b840191505092915050565b5f6020820190508181035f8301526105f481846105a4565b905092915050565b5f5ffd5b5f73ffffffffffffffffffffffffffffffffffffffff82169050919050565b5f61062982610600565b9050919050565b6106398161061f565b8114610643575f5ffd5b50565b5f8135905061065481610630565b92915050565b60048110610666575f5ffd5b50565b5f813590506106778161065a565b92915050565b5f5f60408385031215610693576106926105fc565b5b5f6106a085828601610646565b92505060206106b185828601610669565b9150509250929050565b5f602082840312156106d0576106cf6105fc565b5b5f6106dd84828501610646565b91505092915050565b6106ef8161061f565b82525050565b5f6020820190506107085f8301846106e6565b92915050565b7f4e487b71000000000000000000000000000000000000000000000000000000005f52602160045260245ffd5b6004811061074c5761074b61070e565b5b50565b5f81905061075c8261073b565b919050565b5f61076b8261074f565b9050919050565b61077b81610761565b82525050565b5f6020820190506107945f830184610772565b92915050565b7f4f6e6c792041646d696e20616c6c6f77656400000000000000000000000000005f82015250565b5f6107ce601283610576565b91506107d98261079a565b602082019050919050565b5f6020820190508181035f8301526107fb816107c2565b9050919050565b7f556e617574686f72697a656420726f6c650000000000000000000000000000005f82015250565b5f610836601183610576565b915061084182610802565b602082019050919050565b5f6020820190508181035f8301526108638161082a565b905091905056fea2646970667358221220cd91c6caa6b994ec92b13a643edf5635b935f45c6f24ffc6a07b2a0d3c3c3a3564736f6c634300081d0033","linkReferences":{}},"methodIdentifiers":{"accessAdminResource()":"1f51865b","accessUserResource()":"9434f1f2","assignRole(address,uint8)":"630a195b","owner()":"8da5cb5b","revokeRole(address)":"80e52e3f","roles(address)":"99374642"},"id":21}