{"abi":[{"type":"constructor","inputs":[],"stateMutability":"nonpayable"},{"type":"function","name":"accessByRegion","inputs":[{"name":"region","type":"string","internalType":"string"}],"outputs":[{"name":"","type":"string","internalType":"string"}],"stateMutability":"view"},{"type":"function","name":"admin","inputs":[],"outputs":[{"name":"","type":"address","internalType":"address"}],"stateMutability":"view"},{"type":"function","name":"attributes","inputs":[{"name":"","type":"address","internalType":"address"}],"outputs":[{"name":"region","type":"string","internalType":"string"},{"name":"deviceType","type":"string","internalType":"string"}],"stateMutability":"view"},{"type":"function","name":"setAttributes","inputs":[{"name":"_account","type":"address","internalType":"address"},{"name":"_region","type":"string","internalType":"string"},{"name":"_deviceType","type":"string","internalType":"string"}],"outputs":[],"stateMutability":"nonpayable"}],"bytecode":{"object":"0x6080604052348015600e575f5ffd5b503360015f6101000a81548173ffffffffffffffffffffffffffffffffffffffff021916908373ffffffffffffffffffffffffffffffffffffffff160217905550610c308061005c5f395ff3fe608060405234801561000f575f5ffd5b506004361061004a575f3560e01c8063845199f31461004e578063a7820e511461006a578063ed994d8d1461009a578063f851a440146100cb575b5f5ffd5b610068600480360381019061006391906105cc565b6100e9565b005b610084600480360381019061007f9190610654565b6101fb565b60405161009191906106fb565b60405180910390f35b6100b460048036038101906100af919061071b565b6102d5565b6040516100c2929190610746565b60405180910390f35b6100d3610400565b6040516100e0919061078a565b60405180910390f35b60015f9054906101000a900473ffffffffffffffffffffffffffffffffffffffff1673ffffffffffffffffffffffffffffffffffffffff163373ffffffffffffffffffffffffffffffffffffffff1614610178576040517f08c379a000000000000000000000000000000000000000000000000000000000815260040161016f906107ed565b60405180910390fd5b6040518060400160405280838152602001828152505f5f8573ffffffffffffffffffffffffffffffffffffffff1673ffffffffffffffffffffffffffffffffffffffff1681526020019081526020015f205f820151815f0190816101dc9190610a11565b5060208201518160010190816101f29190610a11565b50905050505050565b606081805190602001205f5f3373ffffffffffffffffffffffffffffffffffffffff1673ffffffffffffffffffffffffffffffffffffffff1681526020019081526020015f205f016040516102509190610b7c565b604051809103902014610298576040517f08c379a000000000000000000000000000000000000000000000000000000000815260040161028f90610bdc565b60405180910390fd5b6040518060400160405280601c81526020017f526567696f6e2d626173656420616363657373206772616e7465642e000000008152509050919050565b5f602052805f5260405f205f91509050805f0180546102f390610838565b80601f016020809104026020016040519081016040528092919081815260200182805461031f90610838565b801561036a5780601f106103415761010080835404028352916020019161036a565b820191905f5260205f20905b81548152906001019060200180831161034d57829003601f168201915b50505050509080600101805461037f90610838565b80601f01602080910402602001604051908101604052809291908181526020018280546103ab90610838565b80156103f65780601f106103cd576101008083540402835291602001916103f6565b820191905f5260205f20905b8154815290600101906020018083116103d957829003601f168201915b5050505050905082565b60015f9054906101000a900473ffffffffffffffffffffffffffffffffffffffff1681565b5f604051905090565b5f5ffd5b5f5ffd5b5f73ffffffffffffffffffffffffffffffffffffffff82169050919050565b5f61045f82610436565b9050919050565b61046f81610455565b8114610479575f5ffd5b50565b5f8135905061048a81610466565b92915050565b5f5ffd5b5f5ffd5b5f601f19601f8301169050919050565b7f4e487b71000000000000000000000000000000000000000000000000000000005f52604160045260245ffd5b6104de82610498565b810181811067ffffffffffffffff821117156104fd576104fc6104a8565b5b80604052505050565b5f61050f610425565b905061051b82826104d5565b919050565b5f67ffffffffffffffff82111561053a576105396104a8565b5b61054382610498565b9050602081019050919050565b828183375f83830152505050565b5f61057061056b84610520565b610506565b90508281526020810184848401111561058c5761058b610494565b5b610597848285610550565b509392505050565b5f82601f8301126105b3576105b2610490565b5b81356105c384826020860161055e565b91505092915050565b5f5f5f606084860312156105e3576105e261042e565b5b5f6105f08682870161047c565b935050602084013567ffffffffffffffff81111561061157610610610432565b5b61061d8682870161059f565b925050604084013567ffffffffffffffff81111561063e5761063d610432565b5b61064a8682870161059f565b9150509250925092565b5f602082840312156106695761066861042e565b5b5f82013567ffffffffffffffff81111561068657610685610432565b5b6106928482850161059f565b91505092915050565b5f81519050919050565b5f82825260208201905092915050565b8281835e5f83830152505050565b5f6106cd8261069b565b6106d781856106a5565b93506106e78185602086016106b5565b6106f081610498565b840191505092915050565b5f6020820190508181035f83015261071381846106c3565b905092915050565b5f602082840312156107305761072f61042e565b5b5f61073d8482850161047c565b91505092915050565b5f6040820190508181035f83015261075e81856106c3565b9050818103602083015261077281846106c3565b90509392505050565b61078481610455565b82525050565b5f60208201905061079d5f83018461077b565b92915050565b7f4f6e6c792061646d696e000000000000000000000000000000000000000000005f82015250565b5f6107d7600a836106a5565b91506107e2826107a3565b602082019050919050565b5f6020820190508181035f830152610804816107cb565b9050919050565b7f4e487b71000000000000000000000000000000000000000000000000000000005f52602260045260245ffd5b5f600282049050600182168061084f57607f821691505b6020821081036108625761086161080b565b5b50919050565b5f819050815f5260205f209050919050565b5f6020601f8301049050919050565b5f82821b905092915050565b5f600883026108c47fffffffffffffffffffffffffffffffffffffffffffffffffffffffffffffffff82610889565b6108ce8683610889565b95508019841693508086168417925050509392505050565b5f819050919050565b5f819050919050565b5f61091261090d610908846108e6565b6108ef565b6108e6565b9050919050565b5f819050919050565b61092b836108f8565b61093f61093782610919565b848454610895565b825550505050565b5f5f905090565b610956610947565b610961818484610922565b505050565b5b81811015610984576109795f8261094e565b600181019050610967565b5050565b601f8211156109c95761099a81610868565b6109a38461087a565b810160208510156109b2578190505b6109c66109be8561087a565b830182610966565b50505b505050565b5f82821c905092915050565b5f6109e95f19846008026109ce565b1980831691505092915050565b5f610a0183836109da565b9150826002028217905092915050565b610a1a8261069b565b67ffffffffffffffff811115610a3357610a326104a8565b5b610a3d8254610838565b610a48828285610988565b5f60209050601f831160018114610a79575f8415610a67578287015190505b610a7185826109f6565b865550610ad8565b601f198416610a8786610868565b5f5b82811015610aae57848901518255600182019150602085019450602081019050610a89565b86831015610acb5784890151610ac7601f8916826109da565b8355505b6001600288020188555050505b505050505050565b5f81905092915050565b5f819050815f5260205f209050919050565b5f8154610b0881610838565b610b128186610ae0565b9450600182165f8114610b2c5760018114610b4157610b73565b60ff1983168652811515820286019350610b73565b610b4a85610aea565b5f5b83811015610b6b57815481890152600182019150602081019050610b4c565b838801955050505b50505092915050565b5f610b878284610afc565b915081905092915050565b7f526567696f6e206d69736d6174636800000000000000000000000000000000005f82015250565b5f610bc6600f836106a5565b9150610bd182610b92565b602082019050919050565b5f6020820190508181035f830152610bf381610bba565b905091905056fea2646970667358221220bf5810b6b0d3457c975166573915dcd9e093a0ecd66fe3879a7d1a665b7a68a864736f6c634300081d0033","linkReferences":{}},"methodIdentifiers":{"accessByRegion(string)":"a7820e51","admin()":"f851a440","attributes(address)":"ed994d8d","setAttributes(address,string,string)":"845199f3"},"id":19}